{
  "contractName": "Registry",
  "abi": [
    {
      "inputs": [],
      "stateMutability": "nonpayable",
      "type": "constructor"
    },
    {
      "inputs": [
        {
          "internalType": "address",
          "name": "",
          "type": "address"
        }
      ],
      "name": "admins",
      "outputs": [
        {
          "internalType": "address",
          "name": "adminAddress",
          "type": "address"
        },
        {
          "internalType": "string",
          "name": "city",
          "type": "string"
        },
        {
          "internalType": "string",
          "name": "district",
          "type": "string"
        },
        {
          "internalType": "string",
          "name": "state",
          "type": "string"
        }
      ],
      "stateMutability": "view",
      "type": "function",
      "constant": true
    },
    {
      "inputs": [
        {
          "internalType": "string",
          "name": "",
          "type": "string"
        },
        {
          "internalType": "string",
          "name": "",
          "type": "string"
        },
        {
          "internalType": "string",
          "name": "",
          "type": "string"
        },
        {
          "internalType": "uint256",
          "name": "",
          "type": "uint256"
        }
      ],
      "name": "landDetalsMap",
      "outputs": [
        {
          "internalType": "address",
          "name": "owner",
          "type": "address"
        },
        {
          "internalType": "address",
          "name": "admin",
          "type": "address"
        },
        {
          "internalType": "uint256",
          "name": "propertyId",
          "type": "uint256"
        },
        {
          "internalType": "uint256",
          "name": "surveyNumber",
          "type": "uint256"
        },
        {
          "internalType": "uint256",
          "name": "index",
          "type": "uint256"
        },
        {
          "internalType": "bool",
          "name": "registered",
          "type": "bool"
        },
        {
          "internalType": "uint256",
          "name": "marketValue",
          "type": "uint256"
        },
        {
          "internalType": "bool",
          "name": "markAvailable",
          "type": "bool"
        },
        {
          "internalType": "uint256",
          "name": "noOfRequests",
          "type": "uint256"
        },
        {
          "internalType": "uint256",
          "name": "sqft",
          "type": "uint256"
        }
      ],
      "stateMutability": "view",
      "type": "function",
      "constant": true
    },
    {
      "inputs": [
        {
          "internalType": "address",
          "name": "",
          "type": "address"
        },
        {
          "internalType": "uint256",
          "name": "",
          "type": "uint256"
        }
      ],
      "name": "ownerMapsProperty",
      "outputs": [
        {
          "internalType": "uint256",
          "name": "surveyNumber",
          "type": "uint256"
        },
        {
          "internalType": "string",
          "name": "state",
          "type": "string"
        },
        {
          "internalType": "string",
          "name": "district",
          "type": "string"
        },
        {
          "internalType": "string",
          "name": "city",
          "type": "string"
        }
      ],
      "stateMutability": "view",
      "type": "function",
      "constant": true
    },
    {
      "inputs": [
        {
          "internalType": "address",
          "name": "",
          "type": "address"
        },
        {
          "internalType": "uint256",
          "name": "",
          "type": "uint256"
        }
      ],
      "name": "requestedLands",
      "outputs": [
        {
          "internalType": "uint256",
          "name": "surveyNumber",
          "type": "uint256"
        },
        {
          "internalType": "string",
          "name": "state",
          "type": "string"
        },
        {
          "internalType": "string",
          "name": "district",
          "type": "string"
        },
        {
          "internalType": "string",
          "name": "city",
          "type": "string"
        }
      ],
      "stateMutability": "view",
      "type": "function",
      "constant": true
    },
    {
      "inputs": [],
      "name": "superAdmin",
      "outputs": [
        {
          "internalType": "address",
          "name": "",
          "type": "address"
        }
      ],
      "stateMutability": "view",
      "type": "function",
      "constant": true
    },
    {
      "inputs": [],
      "name": "totalAdmins",
      "outputs": [
        {
          "internalType": "uint256",
          "name": "",
          "type": "uint256"
        }
      ],
      "stateMutability": "view",
      "type": "function",
      "constant": true
    },
    {
      "inputs": [
        {
          "internalType": "address",
          "name": "",
          "type": "address"
        }
      ],
      "name": "userProfile",
      "outputs": [
        {
          "internalType": "address",
          "name": "userAddr",
          "type": "address"
        },
        {
          "internalType": "string",
          "name": "fullName",
          "type": "string"
        },
        {
          "internalType": "string",
          "name": "gender",
          "type": "string"
        },
        {
          "internalType": "string",
          "name": "email",
          "type": "string"
        },
        {
          "internalType": "uint256",
          "name": "contact",
          "type": "uint256"
        },
        {
          "internalType": "string",
          "name": "residentialAddr",
          "type": "string"
        },
        {
          "internalType": "uint256",
          "name": "totalIndices",
          "type": "uint256"
        },
        {
          "internalType": "uint256",
          "name": "requestIndices",
          "type": "uint256"
        }
      ],
      "stateMutability": "view",
      "type": "function",
      "constant": true
    },
    {
      "inputs": [
        {
          "internalType": "address",
          "name": "_adminAddr",
          "type": "address"
        },
        {
          "internalType": "string",
          "name": "_state",
          "type": "string"
        },
        {
          "internalType": "string",
          "name": "_district",
          "type": "string"
        },
        {
          "internalType": "string",
          "name": "_city",
          "type": "string"
        }
      ],
      "name": "addAdmin",
      "outputs": [],
      "stateMutability": "nonpayable",
      "type": "function"
    },
    {
      "inputs": [],
      "name": "isAdmin",
      "outputs": [
        {
          "internalType": "bool",
          "name": "",
          "type": "bool"
        }
      ],
      "stateMutability": "view",
      "type": "function",
      "constant": true
    },
    {
      "inputs": [
        {
          "internalType": "string",
          "name": "_state",
          "type": "string"
        },
        {
          "internalType": "string",
          "name": "_district",
          "type": "string"
        },
        {
          "internalType": "string",
          "name": "_city",
          "type": "string"
        },
        {
          "internalType": "uint256",
          "name": "_propertyId",
          "type": "uint256"
        },
        {
          "internalType": "uint256",
          "name": "_surveyNo",
          "type": "uint256"
        },
        {
          "internalType": "address",
          "name": "_owner",
          "type": "address"
        },
        {
          "internalType": "uint256",
          "name": "_marketValue",
          "type": "uint256"
        },
        {
          "internalType": "uint256",
          "name": "_sqft",
          "type": "uint256"
        }
      ],
      "name": "registerLand",
      "outputs": [],
      "stateMutability": "nonpayable",
      "type": "function"
    },
    {
      "inputs": [
        {
          "internalType": "string",
          "name": "_fullName",
          "type": "string"
        },
        {
          "internalType": "string",
          "name": "_gender",
          "type": "string"
        },
        {
          "internalType": "string",
          "name": "_email",
          "type": "string"
        },
        {
          "internalType": "uint256",
          "name": "_contact",
          "type": "uint256"
        },
        {
          "internalType": "string",
          "name": "_residentialAddr",
          "type": "string"
        }
      ],
      "name": "setUserProfile",
      "outputs": [],
      "stateMutability": "nonpayable",
      "type": "function"
    },
    {
      "inputs": [
        {
          "internalType": "uint256",
          "name": "indexNo",
          "type": "uint256"
        }
      ],
      "name": "markMyPropertyAvailable",
      "outputs": [],
      "stateMutability": "nonpayable",
      "type": "function"
    },
    {
      "inputs": [
        {
          "internalType": "string",
          "name": "_state",
          "type": "string"
        },
        {
          "internalType": "string",
          "name": "_district",
          "type": "string"
        },
        {
          "internalType": "string",
          "name": "_city",
          "type": "string"
        },
        {
          "internalType": "uint256",
          "name": "_surveyNo",
          "type": "uint256"
        }
      ],
      "name": "RequestForBuy",
      "outputs": [],
      "stateMutability": "nonpayable",
      "type": "function"
    },
    {
      "inputs": [
        {
          "internalType": "uint256",
          "name": "_index",
          "type": "uint256"
        },
        {
          "internalType": "uint256",
          "name": "_reqNo",
          "type": "uint256"
        }
      ],
      "name": "AcceptRequest",
      "outputs": [],
      "stateMutability": "nonpayable",
      "type": "function"
    },
    {
      "inputs": [
        {
          "internalType": "string",
          "name": "_state",
          "type": "string"
        },
        {
          "internalType": "string",
          "name": "_district",
          "type": "string"
        },
        {
          "internalType": "string",
          "name": "_city",
          "type": "string"
        },
        {
          "internalType": "uint256",
          "name": "_surveyNo",
          "type": "uint256"
        }
      ],
      "name": "getLandDetails",
      "outputs": [
        {
          "internalType": "address",
          "name": "",
          "type": "address"
        },
        {
          "internalType": "uint256",
          "name": "",
          "type": "uint256"
        },
        {
          "internalType": "uint256",
          "name": "",
          "type": "uint256"
        },
        {
          "internalType": "uint256",
          "name": "",
          "type": "uint256"
        },
        {
          "internalType": "uint256",
          "name": "",
          "type": "uint256"
        }
      ],
      "stateMutability": "view",
      "type": "function",
      "constant": true
    },
    {
      "inputs": [
        {
          "internalType": "string",
          "name": "_state",
          "type": "string"
        },
        {
          "internalType": "string",
          "name": "_district",
          "type": "string"
        },
        {
          "internalType": "string",
          "name": "_city",
          "type": "string"
        },
        {
          "internalType": "uint256",
          "name": "_surveyNo",
          "type": "uint256"
        }
      ],
      "name": "isAvailable",
      "outputs": [
        {
          "internalType": "bool",
          "name": "",
          "type": "bool"
        }
      ],
      "stateMutability": "view",
      "type": "function",
      "constant": true
    },
    {
      "inputs": [
        {
          "internalType": "uint256",
          "name": "indx",
          "type": "uint256"
        }
      ],
      "name": "getOwnerOwns",
      "outputs": [
        {
          "internalType": "string",
          "name": "",
          "type": "string"
        },
        {
          "internalType": "string",
          "name": "",
          "type": "string"
        },
        {
          "internalType": "string",
          "name": "",
          "type": "string"
        },
        {
          "internalType": "uint256",
          "name": "",
          "type": "uint256"
        }
      ],
      "stateMutability": "view",
      "type": "function",
      "constant": true
    },
    {
      "inputs": [
        {
          "internalType": "uint256",
          "name": "indx",
          "type": "uint256"
        }
      ],
      "name": "getRequestedLands",
      "outputs": [
        {
          "internalType": "string",
          "name": "",
          "type": "string"
        },
        {
          "internalType": "string",
          "name": "",
          "type": "string"
        },
        {
          "internalType": "string",
          "name": "",
          "type": "string"
        },
        {
          "internalType": "uint256",
          "name": "",
          "type": "uint256"
        }
      ],
      "stateMutability": "view",
      "type": "function",
      "constant": true
    },
    {
      "inputs": [],
      "name": "getUserProfile",
      "outputs": [
        {
          "internalType": "string",
          "name": "",
          "type": "string"
        },
        {
          "internalType": "string",
          "name": "",
          "type": "string"
        },
        {
          "internalType": "string",
          "name": "",
          "type": "string"
        },
        {
          "internalType": "uint256",
          "name": "",
          "type": "uint256"
        },
        {
          "internalType": "string",
          "name": "",
          "type": "string"
        }
      ],
      "stateMutability": "view",
      "type": "function",
      "constant": true
    },
    {
      "inputs": [],
      "name": "getIndices",
      "outputs": [
        {
          "internalType": "uint256",
          "name": "",
          "type": "uint256"
        },
        {
          "internalType": "uint256",
          "name": "",
          "type": "uint256"
        }
      ],
      "stateMutability": "view",
      "type": "function",
      "constant": true
    },
    {
      "inputs": [
        {
          "internalType": "string",
          "name": "_state",
          "type": "string"
        },
        {
          "internalType": "string",
          "name": "_district",
          "type": "string"
        },
        {
          "internalType": "string",
          "name": "_city",
          "type": "string"
        },
        {
          "internalType": "uint256",
          "name": "_surveyNo",
          "type": "uint256"
        }
      ],
      "name": "didIRequested",
      "outputs": [
        {
          "internalType": "bool",
          "name": "",
          "type": "bool"
        }
      ],
      "stateMutability": "view",
      "type": "function",
      "constant": true
    }
  ],
  "bytecode": "0x608060405234801561001057600080fd5b50336000806101000a81548173ffffffffffffffffffffffffffffffffffffffff021916908373ffffffffffffffffffffffffffffffffffffffff160217905550614647806100606000396000f3fe608060405234801561001057600080fd5b50600436106101375760003560e01c80636d1b9a8e116100b8578063bfde241c1161007c578063bfde241c14610395578063d1dbeff2146103b1578063d41cc5c8146103e4578063e331ad7c14610400578063eaec23fa14610434578063eb68048b1461046457610137565b80636d1b9a8e146102d65780636f61c744146103095780638a80e4e41461032b578063992369da14610347578063b6db75a01461037757610137565b80632a52ee86116100ff5780632a52ee86146102195780632ca305f314610235578063429b62e51461026857806344e057341461029b5780635863056d146102b757610137565b806303825d6c1461013c5780630e2279af146101585780631555ff1e1461018b5780631c8e8962146101c457806329575f6a146101fb575b600080fd5b610156600480360381019061015191906138ca565b610482565b005b610172600480360381019061016d91906139bb565b610572565b6040516101829493929190613a92565b60405180910390f35b6101a560048036038101906101a09190613aec565b610747565b6040516101bb9a99989796959493929190613bd1565b60405180910390f35b6101de60048036038101906101d99190613c6d565b61085e565b6040516101f2989796959493929190613c9a565b60405180910390f35b610203610ae6565b6040516102109190613d34565b60405180910390f35b610233600480360381019061022e9190613d4f565b610b0a565b005b61024f600480360381019061024a9190613e59565b61117f565b60405161025f9493929190613e86565b60405180910390f35b610282600480360381019061027d9190613c6d565b611494565b6040516102929493929190613ee0565b60405180910390f35b6102b560048036038101906102b09190613e59565b61167c565b005b6102bf611abc565b6040516102cd929190613f3a565b60405180910390f35b6102f060048036038101906102eb9190613e59565b611b59565b6040516103009493929190613e86565b60405180910390f35b610311611e6e565b604051610322959493929190613f63565b60405180910390f35b61034560048036038101906103409190613aec565b612215565b005b610361600480360381019061035c9190613aec565b6124fc565b60405161036e9190613fd2565b60405180910390f35b61037f612585565b60405161038c9190613fd2565b60405180910390f35b6103af60048036038101906103aa9190613fed565b61262e565b005b6103cb60048036038101906103c691906139bb565b6126e6565b6040516103db9493929190613a92565b60405180910390f35b6103fe60048036038101906103f991906140d8565b6128bb565b005b61041a60048036038101906104159190613aec565b613289565b60405161042b959493929190614118565b60405180910390f35b61044e60048036038101906104499190613aec565b6134fa565b60405161045b9190613fd2565b60405180910390f35b61046c613629565b604051610479919061416b565b60405180910390f35b6000600260008673ffffffffffffffffffffffffffffffffffffffff1673ffffffffffffffffffffffffffffffffffffffff1681526020019081526020016000209050600160008154809291906104d8906141b5565b9190505550848160000160006101000a81548173ffffffffffffffffffffffffffffffffffffffff021916908373ffffffffffffffffffffffffffffffffffffffff1602179055508181600101908051906020019061053892919061362f565b508281600201908051906020019061055192919061362f565b508381600301908051906020019061056a92919061362f565b505050505050565b6004602052816000526040600020602052806000526040600020600091509150508060000154908060010180546105a89061422d565b80601f01602080910402602001604051908101604052809291908181526020018280546105d49061422d565b80156106215780601f106105f657610100808354040283529160200191610621565b820191906000526020600020905b81548152906001019060200180831161060457829003601f168201915b5050505050908060020180546106369061422d565b80601f01602080910402602001604051908101604052809291908181526020018280546106629061422d565b80156106af5780601f10610684576101008083540402835291602001916106af565b820191906000526020600020905b81548152906001019060200180831161069257829003601f168201915b5050505050908060030180546106c49061422d565b80601f01602080910402602001604051908101604052809291908181526020018280546106f09061422d565b801561073d5780601f106107125761010080835404028352916020019161073d565b820191906000526020600020905b81548152906001019060200180831161072057829003601f168201915b5050505050905084565b60058480516020810182018051848252602083016020850120818352809550505050505083805160208101820180518482526020830160208501208183528095505050505050828051602081018201805184825260208301602085012081835280955050505050506020528060005260406000206000935093505050508060000160009054906101000a900473ffffffffffffffffffffffffffffffffffffffff16908060010160009054906101000a900473ffffffffffffffffffffffffffffffffffffffff16908060020154908060030154908060040154908060050160009054906101000a900460ff16908060060154908060070160009054906101000a900460ff169080600901549080600a015490508a565b60066020528060005260406000206000915090508060000160009054906101000a900473ffffffffffffffffffffffffffffffffffffffff16908060010180546108a79061422d565b80601f01602080910402602001604051908101604052809291908181526020018280546108d39061422d565b80156109205780601f106108f557610100808354040283529160200191610920565b820191906000526020600020905b81548152906001019060200180831161090357829003601f168201915b5050505050908060020180546109359061422d565b80601f01602080910402602001604051908101604052809291908181526020018280546109619061422d565b80156109ae5780601f10610983576101008083540402835291602001916109ae565b820191906000526020600020905b81548152906001019060200180831161099157829003601f168201915b5050505050908060030180546109c39061422d565b80601f01602080910402602001604051908101604052809291908181526020018280546109ef9061422d565b8015610a3c5780601f10610a1157610100808354040283529160200191610a3c565b820191906000526020600020905b815481529060010190602001808311610a1f57829003601f168201915b505050505090806004015490806005018054610a579061422d565b80601f0160208091040260200160405190810160405280929190818152602001828054610a839061422d565b8015610ad05780601f10610aa557610100808354040283529160200191610ad0565b820191906000526020600020905b815481529060010190602001808311610ab357829003601f168201915b5050505050908060060154908060070154905088565b60008054906101000a900473ffffffffffffffffffffffffffffffffffffffff1681565b3373ffffffffffffffffffffffffffffffffffffffff16600260003373ffffffffffffffffffffffffffffffffffffffff1673ffffffffffffffffffffffffffffffffffffffff16815260200190815260200160002060000160009054906101000a900473ffffffffffffffffffffffffffffffffffffffff1673ffffffffffffffffffffffffffffffffffffffff1614610bda576040517f08c379a0000000000000000000000000000000000000000000000000000000008152600401610bd1906142ab565b60405180910390fd5b87604051602001610beb9190614307565b60405160208183030381529060405280519060200120600260003373ffffffffffffffffffffffffffffffffffffffff1673ffffffffffffffffffffffffffffffffffffffff168152602001908152602001600020600301604051602001610c5391906143b2565b60405160208183030381529060405280519060200120148015610d02575086604051602001610c829190614307565b60405160208183030381529060405280519060200120600260003373ffffffffffffffffffffffffffffffffffffffff1673ffffffffffffffffffffffffffffffffffffffff168152602001908152602001600020600201604051602001610cea91906143b2565b60405160208183030381529060405280519060200120145b8015610d9a575085604051602001610d1a9190614307565b60405160208183030381529060405280519060200120600260003373ffffffffffffffffffffffffffffffffffffffff1673ffffffffffffffffffffffffffffffffffffffff168152602001908152602001600020600101604051602001610d8291906143b2565b60405160208183030381529060405280519060200120145b610dd9576040517f08c379a0000000000000000000000000000000000000000000000000000000008152600401610dd09061443b565b60405180910390fd5b60001515600589604051610ded9190614307565b908152602001604051809103902088604051610e099190614307565b908152602001604051809103902087604051610e259190614307565b9081526020016040518091039020600086815260200190815260200160002060050160009054906101000a900460ff16151514610e97576040517f08c379a0000000000000000000000000000000000000000000000000000000008152600401610e8e906144cd565b60405180910390fd5b6000600589604051610ea99190614307565b908152602001604051809103902088604051610ec59190614307565b908152602001604051809103902087604051610ee19190614307565b9081526020016040518091039020600086815260200190815260200160002090506000600360008673ffffffffffffffffffffffffffffffffffffffff1673ffffffffffffffffffffffffffffffffffffffff1681526020019081526020016000206000600660008873ffffffffffffffffffffffffffffffffffffffff1673ffffffffffffffffffffffffffffffffffffffff1681526020019081526020016000206006015481526020019081526020016000209050848260000160006101000a81548173ffffffffffffffffffffffffffffffffffffffff021916908373ffffffffffffffffffffffffffffffffffffffff160217905550338260010160006101000a81548173ffffffffffffffffffffffffffffffffffffffff021916908373ffffffffffffffffffffffffffffffffffffffff160217905550868260020181905550858260030181905550600660008673ffffffffffffffffffffffffffffffffffffffff1673ffffffffffffffffffffffffffffffffffffffff16815260200190815260200160002060060154826004018190555060018260050160006101000a81548160ff02191690831515021790555083826006018190555060008260070160006101000a81548160ff0219169083151502179055508282600a0181905550858160000181905550898160010190805190602001906110e892919061362f565b508881600201908051906020019061110192919061362f565b508781600301908051906020019061111a92919061362f565b50600660008673ffffffffffffffffffffffffffffffffffffffff1673ffffffffffffffffffffffffffffffffffffffff168152602001908152602001600020600601600081548092919061116e906141b5565b919050555050505050505050505050565b6060806060600080600460003373ffffffffffffffffffffffffffffffffffffffff1673ffffffffffffffffffffffffffffffffffffffff16815260200190815260200160002060008781526020019081526020016000206000015490506000600460003373ffffffffffffffffffffffffffffffffffffffff1673ffffffffffffffffffffffffffffffffffffffff1681526020019081526020016000206000888152602001908152602001600020600101805461123d9061422d565b80601f01602080910402602001604051908101604052809291908181526020018280546112699061422d565b80156112b65780601f1061128b576101008083540402835291602001916112b6565b820191906000526020600020905b81548152906001019060200180831161129957829003601f168201915b505050505090506000600460003373ffffffffffffffffffffffffffffffffffffffff1673ffffffffffffffffffffffffffffffffffffffff1681526020019081526020016000206000898152602001908152602001600020600201805461131d9061422d565b80601f01602080910402602001604051908101604052809291908181526020018280546113499061422d565b80156113965780601f1061136b57610100808354040283529160200191611396565b820191906000526020600020905b81548152906001019060200180831161137957829003601f168201915b505050505090506000600460003373ffffffffffffffffffffffffffffffffffffffff1673ffffffffffffffffffffffffffffffffffffffff16815260200190815260200160002060008a815260200190815260200160002060030180546113fd9061422d565b80601f01602080910402602001604051908101604052809291908181526020018280546114299061422d565b80156114765780601f1061144b57610100808354040283529160200191611476565b820191906000526020600020905b81548152906001019060200180831161145957829003601f168201915b50505050509050828282869750975097509750505050509193509193565b60026020528060005260406000206000915090508060000160009054906101000a900473ffffffffffffffffffffffffffffffffffffffff16908060010180546114dd9061422d565b80601f01602080910402602001604051908101604052809291908181526020018280546115099061422d565b80156115565780601f1061152b57610100808354040283529160200191611556565b820191906000526020600020905b81548152906001019060200180831161153957829003601f168201915b50505050509080600201805461156b9061422d565b80601f01602080910402602001604051908101604052809291908181526020018280546115979061422d565b80156115e45780601f106115b9576101008083540402835291602001916115e4565b820191906000526020600020905b8154815290600101906020018083116115c757829003601f168201915b5050505050908060030180546115f99061422d565b80601f01602080910402602001604051908101604052809291908181526020018280546116259061422d565b80156116725780601f1061164757610100808354040283529160200191611672565b820191906000526020600020905b81548152906001019060200180831161165557829003601f168201915b5050505050905084565b6000600360003373ffffffffffffffffffffffffffffffffffffffff1673ffffffffffffffffffffffffffffffffffffffff168152602001908152602001600020600083815260200190815260200160002060010180546116dc9061422d565b80601f01602080910402602001604051908101604052809291908181526020018280546117089061422d565b80156117555780601f1061172a57610100808354040283529160200191611755565b820191906000526020600020905b81548152906001019060200180831161173857829003601f168201915b505050505090506000600360003373ffffffffffffffffffffffffffffffffffffffff1673ffffffffffffffffffffffffffffffffffffffff168152602001908152602001600020600084815260200190815260200160002060020180546117bc9061422d565b80601f01602080910402602001604051908101604052809291908181526020018280546117e89061422d565b80156118355780601f1061180a57610100808354040283529160200191611835565b820191906000526020600020905b81548152906001019060200180831161181857829003601f168201915b505050505090506000600360003373ffffffffffffffffffffffffffffffffffffffff1673ffffffffffffffffffffffffffffffffffffffff1681526020019081526020016000206000858152602001908152602001600020600301805461189c9061422d565b80601f01602080910402602001604051908101604052809291908181526020018280546118c89061422d565b80156119155780601f106118ea57610100808354040283529160200191611915565b820191906000526020600020905b8154815290600101906020018083116118f857829003601f168201915b505050505090506000600360003373ffffffffffffffffffffffffffffffffffffffff1673ffffffffffffffffffffffffffffffffffffffff1681526020019081526020016000206000868152602001908152602001600020600001549050600015156005856040516119889190614307565b9081526020016040518091039020846040516119a49190614307565b9081526020016040518091039020836040516119c09190614307565b9081526020016040518091039020600083815260200190815260200160002060070160009054906101000a900460ff16151514611a32576040517f08c379a0000000000000000000000000000000000000000000000000000000008152600401611a299061455f565b60405180910390fd5b6001600585604051611a449190614307565b908152602001604051809103902084604051611a609190614307565b908152602001604051809103902083604051611a7c9190614307565b9081526020016040518091039020600083815260200190815260200160002060070160006101000a81548160ff0219169083151502179055505050505050565b6000806000600660003373ffffffffffffffffffffffffffffffffffffffff1673ffffffffffffffffffffffffffffffffffffffff1681526020019081526020016000206006015490506000600660003373ffffffffffffffffffffffffffffffffffffffff1673ffffffffffffffffffffffffffffffffffffffff16815260200190815260200160002060070154905081819350935050509091565b6060806060600080600360003373ffffffffffffffffffffffffffffffffffffffff1673ffffffffffffffffffffffffffffffffffffffff16815260200190815260200160002060008781526020019081526020016000206000015490506000600360003373ffffffffffffffffffffffffffffffffffffffff1673ffffffffffffffffffffffffffffffffffffffff16815260200190815260200160002060008881526020019081526020016000206001018054611c179061422d565b80601f0160208091040260200160405190810160405280929190818152602001828054611c439061422d565b8015611c905780601f10611c6557610100808354040283529160200191611c90565b820191906000526020600020905b815481529060010190602001808311611c7357829003601f168201915b505050505090506000600360003373ffffffffffffffffffffffffffffffffffffffff1673ffffffffffffffffffffffffffffffffffffffff16815260200190815260200160002060008981526020019081526020016000206002018054611cf79061422d565b80601f0160208091040260200160405190810160405280929190818152602001828054611d239061422d565b8015611d705780601f10611d4557610100808354040283529160200191611d70565b820191906000526020600020905b815481529060010190602001808311611d5357829003601f168201915b505050505090506000600360003373ffffffffffffffffffffffffffffffffffffffff1673ffffffffffffffffffffffffffffffffffffffff16815260200190815260200160002060008a81526020019081526020016000206003018054611dd79061422d565b80601f0160208091040260200160405190810160405280929190818152602001828054611e039061422d565b8015611e505780601f10611e2557610100808354040283529160200191611e50565b820191906000526020600020905b815481529060010190602001808311611e3357829003601f168201915b50505050509050828282869750975097509750505050509193509193565b6060806060600060606000600660003373ffffffffffffffffffffffffffffffffffffffff1673ffffffffffffffffffffffffffffffffffffffff1681526020019081526020016000206001018054611ec69061422d565b80601f0160208091040260200160405190810160405280929190818152602001828054611ef29061422d565b8015611f3f5780601f10611f1457610100808354040283529160200191611f3f565b820191906000526020600020905b815481529060010190602001808311611f2257829003601f168201915b505050505090506000600660003373ffffffffffffffffffffffffffffffffffffffff1673ffffffffffffffffffffffffffffffffffffffff1681526020019081526020016000206002018054611f959061422d565b80601f0160208091040260200160405190810160405280929190818152602001828054611fc19061422d565b801561200e5780601f10611fe35761010080835404028352916020019161200e565b820191906000526020600020905b815481529060010190602001808311611ff157829003601f168201915b505050505090506000600660003373ffffffffffffffffffffffffffffffffffffffff1673ffffffffffffffffffffffffffffffffffffffff16815260200190815260200160002060030180546120649061422d565b80601f01602080910402602001604051908101604052809291908181526020018280546120909061422d565b80156120dd5780601f106120b2576101008083540402835291602001916120dd565b820191906000526020600020905b8154815290600101906020018083116120c057829003601f168201915b505050505090506000600660003373ffffffffffffffffffffffffffffffffffffffff1673ffffffffffffffffffffffffffffffffffffffff1681526020019081526020016000206004015490506000600660003373ffffffffffffffffffffffffffffffffffffffff1673ffffffffffffffffffffffffffffffffffffffff168152602001908152602001600020600501805461217a9061422d565b80601f01602080910402602001604051908101604052809291908181526020018280546121a69061422d565b80156121f35780601f106121c8576101008083540402835291602001916121f3565b820191906000526020600020905b8154815290600101906020018083116121d657829003601f168201915b5050505050905084848484849950995099509950995050505050509091929394565b60006005856040516122279190614307565b9081526020016040518091039020846040516122439190614307565b90815260200160405180910390208360405161225f9190614307565b908152602001604051809103902060008381526020019081526020016000209050600115158160070160009054906101000a900460ff161515146122d8576040517f08c379a00000000000000000000000000000000000000000000000000000000081526004016122cf906145f1565b60405180910390fd5b6000816009015490503382600801600083815260200190815260200160002060000160006101000a81548173ffffffffffffffffffffffffffffffffffffffff021916908373ffffffffffffffffffffffffffffffffffffffff160217905550600660003373ffffffffffffffffffffffffffffffffffffffff1673ffffffffffffffffffffffffffffffffffffffff16815260200190815260200160002060070154826008016000838152602001908152602001600020600101819055508160090160008154809291906123ac906141b5565b91905055506000600460003373ffffffffffffffffffffffffffffffffffffffff1673ffffffffffffffffffffffffffffffffffffffff1681526020019081526020016000206000600660003373ffffffffffffffffffffffffffffffffffffffff1673ffffffffffffffffffffffffffffffffffffffff16815260200190815260200160002060070154815260200190815260200160002090508381600001819055508681600101908051906020019061246892919061362f565b508581600201908051906020019061248192919061362f565b508481600301908051906020019061249a92919061362f565b50600660003373ffffffffffffffffffffffffffffffffffffffff1673ffffffffffffffffffffffffffffffffffffffff16815260200190815260200160002060070160008154809291906124ee906141b5565b919050555050505050505050565b60008060058660405161250f9190614307565b90815260200160405180910390208560405161252b9190614307565b9081526020016040518091039020846040516125479190614307565b9081526020016040518091039020600084815260200190815260200160002060070160009054906101000a900460ff16905080915050949350505050565b60003373ffffffffffffffffffffffffffffffffffffffff16600260003373ffffffffffffffffffffffffffffffffffffffff1673ffffffffffffffffffffffffffffffffffffffff16815260200190815260200160002060000160009054906101000a900473ffffffffffffffffffffffffffffffffffffffff1673ffffffffffffffffffffffffffffffffffffffff161415612626576001905061262b565b600090505b90565b6000600660003373ffffffffffffffffffffffffffffffffffffffff1673ffffffffffffffffffffffffffffffffffffffff16815260200190815260200160002090508581600101908051906020019061268992919061362f565b50848160020190805190602001906126a292919061362f565b50838160030190805190602001906126bb92919061362f565b50828160040181905550818160050190805190602001906126dd92919061362f565b50505050505050565b60036020528160005260406000206020528060005260406000206000915091505080600001549080600101805461271c9061422d565b80601f01602080910402602001604051908101604052809291908181526020018280546127489061422d565b80156127955780601f1061276a57610100808354040283529160200191612795565b820191906000526020600020905b81548152906001019060200180831161277857829003601f168201915b5050505050908060020180546127aa9061422d565b80601f01602080910402602001604051908101604052809291908181526020018280546127d69061422d565b80156128235780601f106127f857610100808354040283529160200191612823565b820191906000526020600020905b81548152906001019060200180831161280657829003601f168201915b5050505050908060030180546128389061422d565b80601f01602080910402602001604051908101604052809291908181526020018280546128649061422d565b80156128b15780601f10612886576101008083540402835291602001916128b1565b820191906000526020600020905b81548152906001019060200180831161289457829003601f168201915b5050505050905084565b6000600360003373ffffffffffffffffffffffffffffffffffffffff1673ffffffffffffffffffffffffffffffffffffffff16815260200190815260200160002060008481526020019081526020016000206000015490506000600360003373ffffffffffffffffffffffffffffffffffffffff1673ffffffffffffffffffffffffffffffffffffffff168152602001908152602001600020600085815260200190815260200160002060010180546129739061422d565b80601f016020809104026020016040519081016040528092919081815260200182805461299f9061422d565b80156129ec5780601f106129c1576101008083540402835291602001916129ec565b820191906000526020600020905b8154815290600101906020018083116129cf57829003601f168201915b505050505090506000600360003373ffffffffffffffffffffffffffffffffffffffff1673ffffffffffffffffffffffffffffffffffffffff16815260200190815260200160002060008681526020019081526020016000206002018054612a539061422d565b80601f0160208091040260200160405190810160405280929190818152602001828054612a7f9061422d565b8015612acc5780601f10612aa157610100808354040283529160200191612acc565b820191906000526020600020905b815481529060010190602001808311612aaf57829003601f168201915b505050505090506000600360003373ffffffffffffffffffffffffffffffffffffffff1673ffffffffffffffffffffffffffffffffffffffff16815260200190815260200160002060008781526020019081526020016000206003018054612b339061422d565b80601f0160208091040260200160405190810160405280929190818152602001828054612b5f9061422d565b8015612bac5780601f10612b8157610100808354040283529160200191612bac565b820191906000526020600020905b815481529060010190602001808311612b8f57829003601f168201915b505050505090506000600584604051612bc59190614307565b908152602001604051809103902083604051612be19190614307565b908152602001604051809103902082604051612bfd9190614307565b90815260200160405180910390206000868152602001908152602001600020600801600087815260200190815260200160002060000160009054906101000a900473ffffffffffffffffffffffffffffffffffffffff1690506000600585604051612c689190614307565b908152602001604051809103902084604051612c849190614307565b908152602001604051809103902083604051612ca09190614307565b9081526020016040518091039020600087815260200190815260200160002060080160008881526020019081526020016000206001015490506000600586604051612ceb9190614307565b908152602001604051809103902085604051612d079190614307565b908152602001604051809103902084604051612d239190614307565b9081526020016040518091039020600088815260200190815260200160002060090154905060005b81811015612e1357600587604051612d639190614307565b908152602001604051809103902086604051612d7f9190614307565b908152602001604051809103902085604051612d9b9190614307565b908152602001604051809103902060008981526020019081526020016000206008016000828152602001908152602001600020600080820160006101000a81549073ffffffffffffffffffffffffffffffffffffffff0219169055600182016000905550508080612e0b906141b5565b915050612d4b565b5082600587604051612e259190614307565b908152602001604051809103902086604051612e419190614307565b908152602001604051809103902085604051612e5d9190614307565b9081526020016040518091039020600089815260200190815260200160002060000160006101000a81548173ffffffffffffffffffffffffffffffffffffffff021916908373ffffffffffffffffffffffffffffffffffffffff1602179055506000600587604051612ecf9190614307565b908152602001604051809103902086604051612eeb9190614307565b908152602001604051809103902085604051612f079190614307565b9081526020016040518091039020600089815260200190815260200160002060070160006101000a81548160ff0219169083151502179055506000600587604051612f529190614307565b908152602001604051809103902086604051612f6e9190614307565b908152602001604051809103902085604051612f8a9190614307565b9081526020016040518091039020600089815260200190815260200160002060090181905550600360003373ffffffffffffffffffffffffffffffffffffffff1673ffffffffffffffffffffffffffffffffffffffff16815260200190815260200160002060008a815260200190815260200160002060008082016000905560018201600061301991906136b5565b60028201600061302991906136b5565b60038201600061303991906136b5565b50506000600660008573ffffffffffffffffffffffffffffffffffffffff1673ffffffffffffffffffffffffffffffffffffffff1681526020019081526020016000206006015490506000600360008673ffffffffffffffffffffffffffffffffffffffff1673ffffffffffffffffffffffffffffffffffffffff16815260200190815260200160002060008381526020019081526020016000209050888160000181905550878160010190805190602001906130f792919061362f565b508681600201908051906020019061311092919061362f565b508581600301908051906020019061312992919061362f565b508160058960405161313b9190614307565b9081526020016040518091039020886040516131579190614307565b9081526020016040518091039020876040516131739190614307565b908152602001604051809103902060008b815260200190815260200160002060040181905550600660008673ffffffffffffffffffffffffffffffffffffffff1673ffffffffffffffffffffffffffffffffffffffff16815260200190815260200160002060060160008154809291906131ec906141b5565b9190505550600460008673ffffffffffffffffffffffffffffffffffffffff1673ffffffffffffffffffffffffffffffffffffffff168152602001908152602001600020600085815260200190815260200160002060008082016000905560018201600061325a91906136b5565b60028201600061326a91906136b5565b60038201600061327a91906136b5565b50505050505050505050505050565b60008060008060008060058a6040516132a29190614307565b9081526020016040518091039020896040516132be9190614307565b9081526020016040518091039020886040516132da9190614307565b9081526020016040518091039020600088815260200190815260200160002060000160009054906101000a900473ffffffffffffffffffffffffffffffffffffffff169050600060058b6040516133319190614307565b90815260200160405180910390208a60405161334d9190614307565b9081526020016040518091039020896040516133699190614307565b90815260200160405180910390206000898152602001908152602001600020600201549050600060058c6040516133a09190614307565b90815260200160405180910390208b6040516133bc9190614307565b90815260200160405180910390208a6040516133d89190614307565b908152602001604051809103902060008a8152602001908152602001600020600401549050600060058d60405161340f9190614307565b90815260200160405180910390208c60405161342b9190614307565b90815260200160405180910390208b6040516134479190614307565b908152602001604051809103902060008b8152602001908152602001600020600601549050600060058e60405161347e9190614307565b90815260200160405180910390208d60405161349a9190614307565b90815260200160405180910390208c6040516134b69190614307565b908152602001604051809103902060008c8152602001908152602001600020600a015490508484848484995099509950995099505050505050945094509450945094565b60008060058660405161350d9190614307565b9081526020016040518091039020856040516135299190614307565b9081526020016040518091039020846040516135459190614307565b908152602001604051809103902060008481526020019081526020016000209050600081600901549050600081141561358357600092505050613621565b60005b81811015613619573373ffffffffffffffffffffffffffffffffffffffff1683600801600083815260200190815260200160002060000160009054906101000a900473ffffffffffffffffffffffffffffffffffffffff1673ffffffffffffffffffffffffffffffffffffffff1614156136065760019350505050613621565b8080613611906141b5565b915050613586565b506000925050505b949350505050565b60015481565b82805461363b9061422d565b90600052602060002090601f01602090048101928261365d57600085556136a4565b82601f1061367657805160ff19168380011785556136a4565b828001600101855582156136a4579182015b828111156136a3578251825591602001919060010190613688565b5b5090506136b191906136f5565b5090565b5080546136c19061422d565b6000825580601f106136d357506136f2565b601f0160209004906000526020600020908101906136f191906136f5565b5b50565b5b8082111561370e5760008160009055506001016136f6565b5090565b6000604051905090565b600080fd5b600080fd5b600073ffffffffffffffffffffffffffffffffffffffff82169050919050565b600061375182613726565b9050919050565b61376181613746565b811461376c57600080fd5b50565b60008135905061377e81613758565b92915050565b600080fd5b600080fd5b6000601f19601f8301169050919050565b7f4e487b7100000000000000000000000000000000000000000000000000000000600052604160045260246000fd5b6137d78261378e565b810181811067ffffffffffffffff821117156137f6576137f561379f565b5b80604052505050565b6000613809613712565b905061381582826137ce565b919050565b600067ffffffffffffffff8211156138355761383461379f565b5b61383e8261378e565b9050602081019050919050565b82818337600083830152505050565b600061386d6138688461381a565b6137ff565b90508281526020810184848401111561388957613888613789565b5b61389484828561384b565b509392505050565b600082601f8301126138b1576138b0613784565b5b81356138c184826020860161385a565b91505092915050565b600080600080608085870312156138e4576138e361371c565b5b60006138f28782880161376f565b945050602085013567ffffffffffffffff81111561391357613912613721565b5b61391f8782880161389c565b935050604085013567ffffffffffffffff8111156139405761393f613721565b5b61394c8782880161389c565b925050606085013567ffffffffffffffff81111561396d5761396c613721565b5b6139798782880161389c565b91505092959194509250565b6000819050919050565b61399881613985565b81146139a357600080fd5b50565b6000813590506139b58161398f565b92915050565b600080604083850312156139d2576139d161371c565b5b60006139e08582860161376f565b92505060206139f1858286016139a6565b9150509250929050565b613a0481613985565b82525050565b600081519050919050565b600082825260208201905092915050565b60005b83811015613a44578082015181840152602081019050613a29565b83811115613a53576000848401525b50505050565b6000613a6482613a0a565b613a6e8185613a15565b9350613a7e818560208601613a26565b613a878161378e565b840191505092915050565b6000608082019050613aa760008301876139fb565b8181036020830152613ab98186613a59565b90508181036040830152613acd8185613a59565b90508181036060830152613ae18184613a59565b905095945050505050565b60008060008060808587031215613b0657613b0561371c565b5b600085013567ffffffffffffffff811115613b2457613b23613721565b5b613b308782880161389c565b945050602085013567ffffffffffffffff811115613b5157613b50613721565b5b613b5d8782880161389c565b935050604085013567ffffffffffffffff811115613b7e57613b7d613721565b5b613b8a8782880161389c565b9250506060613b9b878288016139a6565b91505092959194509250565b613bb081613746565b82525050565b60008115159050919050565b613bcb81613bb6565b82525050565b600061014082019050613be7600083018d613ba7565b613bf4602083018c613ba7565b613c01604083018b6139fb565b613c0e606083018a6139fb565b613c1b60808301896139fb565b613c2860a0830188613bc2565b613c3560c08301876139fb565b613c4260e0830186613bc2565b613c506101008301856139fb565b613c5e6101208301846139fb565b9b9a5050505050505050505050565b600060208284031215613c8357613c8261371c565b5b6000613c918482850161376f565b91505092915050565b600061010082019050613cb0600083018b613ba7565b8181036020830152613cc2818a613a59565b90508181036040830152613cd68189613a59565b90508181036060830152613cea8188613a59565b9050613cf960808301876139fb565b81810360a0830152613d0b8186613a59565b9050613d1a60c08301856139fb565b613d2760e08301846139fb565b9998505050505050505050565b6000602082019050613d496000830184613ba7565b92915050565b600080600080600080600080610100898b031215613d7057613d6f61371c565b5b600089013567ffffffffffffffff811115613d8e57613d8d613721565b5b613d9a8b828c0161389c565b985050602089013567ffffffffffffffff811115613dbb57613dba613721565b5b613dc78b828c0161389c565b975050604089013567ffffffffffffffff811115613de857613de7613721565b5b613df48b828c0161389c565b9650506060613e058b828c016139a6565b9550506080613e168b828c016139a6565b94505060a0613e278b828c0161376f565b93505060c0613e388b828c016139a6565b92505060e0613e498b828c016139a6565b9150509295985092959890939650565b600060208284031215613e6f57613e6e61371c565b5b6000613e7d848285016139a6565b91505092915050565b60006080820190508181036000830152613ea08187613a59565b90508181036020830152613eb48186613a59565b90508181036040830152613ec88185613a59565b9050613ed760608301846139fb565b95945050505050565b6000608082019050613ef56000830187613ba7565b8181036020830152613f078186613a59565b90508181036040830152613f1b8185613a59565b90508181036060830152613f2f8184613a59565b905095945050505050565b6000604082019050613f4f60008301856139fb565b613f5c60208301846139fb565b9392505050565b600060a0820190508181036000830152613f7d8188613a59565b90508181036020830152613f918187613a59565b90508181036040830152613fa58186613a59565b9050613fb460608301856139fb565b8181036080830152613fc68184613a59565b90509695505050505050565b6000602082019050613fe76000830184613bc2565b92915050565b600080600080600060a086880312156140095761400861371c565b5b600086013567ffffffffffffffff81111561402757614026613721565b5b6140338882890161389c565b955050602086013567ffffffffffffffff81111561405457614053613721565b5b6140608882890161389c565b945050604086013567ffffffffffffffff81111561408157614080613721565b5b61408d8882890161389c565b935050606061409e888289016139a6565b925050608086013567ffffffffffffffff8111156140bf576140be613721565b5b6140cb8882890161389c565b9150509295509295909350565b600080604083850312156140ef576140ee61371c565b5b60006140fd858286016139a6565b925050602061410e858286016139a6565b9150509250929050565b600060a08201905061412d6000830188613ba7565b61413a60208301876139fb565b61414760408301866139fb565b61415460608301856139fb565b61416160808301846139fb565b9695505050505050565b600060208201905061418060008301846139fb565b92915050565b7f4e487b7100000000000000000000000000000000000000000000000000000000600052601160045260246000fd5b60006141c082613985565b91507fffffffffffffffffffffffffffffffffffffffffffffffffffffffffffffffff8214156141f3576141f2614186565b5b600182019050919050565b7f4e487b7100000000000000000000000000000000000000000000000000000000600052602260045260246000fd5b6000600282049050600182168061424557607f821691505b60208210811415614259576142586141fe565b5b50919050565b7f4f6e6c792061646d696e2063616e205265676973746572206c616e6400000000600082015250565b6000614295601c83613a15565b91506142a08261425f565b602082019050919050565b600060208201905081810360008301526142c481614288565b9050919050565b600081905092915050565b60006142e182613a0a565b6142eb81856142cb565b93506142fb818560208601613a26565b80840191505092915050565b600061431382846142d6565b915081905092915050565b60008190508160005260206000209050919050565b600081546143408161422d565b61434a81866142cb565b945060018216600081146143655760018114614376576143a9565b60ff198316865281860193506143a9565b61437f8561431e565b60005b838110156143a157815481890152600182019150602081019050614382565b838801955050505b50505092915050565b60006143be8284614333565b915081905092915050565b7f41646d696e2063616e206f6e6c79207265676973746572206c616e64206f662060008201527f73616d6520636974792e00000000000000000000000000000000000000000000602082015250565b6000614425602a83613a15565b9150614430826143c9565b604082019050919050565b6000602082019050818103600083015261445481614418565b9050919050565b7f537572766579204e756d62657220616c7265616479207265676973746572656460008201527f2100000000000000000000000000000000000000000000000000000000000000602082015250565b60006144b7602183613a15565b91506144c28261445b565b604082019050919050565b600060208201905081810360008301526144e6816144aa565b9050919050565b7f50726f706572747920616c7265616479206d61726b656420617661696c61626c60008201527f6500000000000000000000000000000000000000000000000000000000000000602082015250565b6000614549602183613a15565b9150614554826144ed565b604082019050919050565b600060208201905081810360008301526145788161453c565b9050919050565b7f546869732070726f7065727479206973204e4f54206d61726b656420666f722060008201527f73616c6521000000000000000000000000000000000000000000000000000000602082015250565b60006145db602583613a15565b91506145e68261457f565b604082019050919050565b6000602082019050818103600083015261460a816145ce565b905091905056fea26469706673582212201478ad71ace9a1ab742f65f47f956727f52974064a121f547c6025f204d322fa64736f6c63430008090033",
  "immutableReferences": {},
  "source": "// SPDX-License-Identifier: MIT\r\npragma solidity >= 0.5.0 < 0.9.0;\r\n\r\ncontract Registry{\r\n\r\n    address public superAdmin;\r\n    uint public totalAdmins;\r\n    \r\n    struct Admin{\r\n        address adminAddress;\r\n        string city;\r\n        string district;\r\n        string state;\r\n    }\r\n\r\n    struct LandDetails{\r\n        address owner;\r\n        address admin;\r\n        uint256 propertyId;\r\n        uint surveyNumber;\r\n        uint index;\r\n        bool registered;\r\n        uint marketValue;\r\n        bool markAvailable;\r\n        mapping(uint => RequestDetails) requests; // reqNo => RequestDetails\r\n        uint noOfRequests;  // other users requested to this land\r\n        uint sqft;\r\n    }\r\n\r\n    struct UserProfile{\r\n        address userAddr;\r\n        string fullName;\r\n        string gender;\r\n        string email;\r\n        uint256 contact;\r\n        string residentialAddr;\r\n        uint totalIndices;\r\n        uint requestIndices;  // this user requested to other lands\r\n    }\r\n\r\n    struct OwnerOwns{\r\n        uint surveyNumber;\r\n        string state;\r\n        string district;\r\n        string city;\r\n    }\r\n    \r\n    struct RequestedLands{\r\n        uint surveyNumber;\r\n        string state;\r\n        string district;\r\n        string city;\r\n    }\r\n\r\n    struct RequestDetails{\r\n        address whoRequested;\r\n        uint reqIndex;\r\n    }\r\n\r\n    mapping(address => Admin) public admins;\r\n    mapping(address => mapping(uint => OwnerOwns)) public ownerMapsProperty;  // ownerAddr => index no. => OwnerOwns \r\n    mapping(address => mapping(uint => RequestedLands)) public requestedLands;  // ownerAddr => reqIndex => RequestedLands\r\n    mapping(string => mapping(string => mapping(string => mapping(uint => LandDetails)))) public landDetalsMap; // state => district => city => surveyNo => LandDetails\r\n    mapping(address => UserProfile) public userProfile;\r\n    \r\n\r\n    constructor(){\r\n        superAdmin = msg.sender;\r\n    }\r\n\r\n    modifier onlyAdmin(){\r\n        require(admins[msg.sender].adminAddress == msg.sender, \"Only admin can Register land\");\r\n        _;\r\n    }\r\n\r\n\r\n    // SuperAdmin: Registers new admin\r\n    function addAdmin(address _adminAddr, string memory _state, string memory _district, string memory _city) external{\r\n        Admin storage newAdmin = admins[_adminAddr];\r\n        totalAdmins++;\r\n\r\n        newAdmin.adminAddress = _adminAddr;\r\n        newAdmin.city = _city;\r\n        newAdmin.district = _district;\r\n        newAdmin.state = _state;\r\n    }\r\n\r\n\r\n    // check if it is admin\r\n    function isAdmin() external view returns(bool){\r\n        if(admins[msg.sender].adminAddress == msg.sender){\r\n            return true;\r\n        }\r\n        else return false;\r\n    }\r\n\r\n\r\n    // Admin: registers land\r\n    function registerLand(string memory _state, string memory _district, string memory _city, uint256 _propertyId, uint _surveyNo, address _owner, uint _marketValue, uint _sqft) external onlyAdmin{\r\n        \r\n        require(keccak256(abi.encodePacked(admins[msg.sender].state)) == keccak256(abi.encodePacked(_state))  \r\n        && keccak256(abi.encodePacked(admins[msg.sender].district)) == keccak256(abi.encodePacked(_district))\r\n        && keccak256(abi.encodePacked(admins[msg.sender].city)) == keccak256(abi.encodePacked(_city)), \"Admin can only register land of same city.\");\r\n\r\n        require(landDetalsMap[_state][_district][_city][_surveyNo].registered == false, \"Survey Number already registered!\");\r\n\r\n        LandDetails storage newLandRegistry = landDetalsMap[_state][_district][_city][_surveyNo];\r\n        OwnerOwns storage newOwnerOwns = ownerMapsProperty[_owner][userProfile[_owner].totalIndices];\r\n        \r\n\r\n        newLandRegistry.owner = _owner;\r\n        newLandRegistry.admin = msg.sender;\r\n        newLandRegistry.propertyId = _propertyId;\r\n        newLandRegistry.surveyNumber = _surveyNo;\r\n        newLandRegistry.index = userProfile[_owner].totalIndices;\r\n        newLandRegistry.registered = true;\r\n        newLandRegistry.marketValue = _marketValue;\r\n        newLandRegistry.markAvailable = false;\r\n        newLandRegistry.sqft = _sqft;\r\n\r\n        newOwnerOwns.surveyNumber = _surveyNo;\r\n        newOwnerOwns.state = _state;\r\n        newOwnerOwns.district = _district;\r\n        newOwnerOwns.city = _city;\r\n\r\n        userProfile[_owner].totalIndices++;\r\n    }\r\n\r\n\r\n    // User_1: set user profile\r\n    function setUserProfile(string memory _fullName, string memory _gender, string memory _email, uint256 _contact, string memory _residentialAddr) external{\r\n        \r\n        UserProfile storage newUserProfile = userProfile[msg.sender];\r\n\r\n        newUserProfile.fullName = _fullName;\r\n        newUserProfile.gender = _gender;\r\n        newUserProfile.email = _email;\r\n        newUserProfile.contact = _contact;\r\n        newUserProfile.residentialAddr = _residentialAddr;\r\n    }\r\n\r\n\r\n    // User_1: mark property available\r\n    function markMyPropertyAvailable(uint indexNo) external {\r\n        \r\n        string memory state = ownerMapsProperty[msg.sender][indexNo].state;\r\n        string memory district = ownerMapsProperty[msg.sender][indexNo].district;\r\n        string memory city = ownerMapsProperty[msg.sender][indexNo].city;\r\n        uint surveyNumber = ownerMapsProperty[msg.sender][indexNo].surveyNumber;\r\n\r\n        require(landDetalsMap[state][district][city][surveyNumber].markAvailable == false, \"Property already marked available\");\r\n\r\n        landDetalsMap[state][district][city][surveyNumber].markAvailable = true;\r\n    \r\n    }\r\n\r\n\r\n    // User_2: Request for buy  **ownerAddress & index = arguements** \r\n    function RequestForBuy(string memory _state, string memory _district, string memory _city, uint _surveyNo) external{\r\n\r\n        LandDetails storage thisLandDetail = landDetalsMap[_state][_district][_city][_surveyNo];\r\n        require(thisLandDetail.markAvailable == true, \"This property is NOT marked for sale!\");\r\n\r\n        uint req_serialNum = thisLandDetail.noOfRequests; \r\n        thisLandDetail.requests[req_serialNum].whoRequested = msg.sender;\r\n        thisLandDetail.requests[req_serialNum].reqIndex = userProfile[msg.sender].requestIndices;\r\n        thisLandDetail.noOfRequests++;\r\n\r\n        // adding requested land to user_2 profile\r\n        RequestedLands storage newReqestedLands = requestedLands[msg.sender][userProfile[msg.sender].requestIndices];\r\n        newReqestedLands.surveyNumber = _surveyNo;\r\n        newReqestedLands.state = _state;\r\n        newReqestedLands.district = _district;\r\n        newReqestedLands.city = _city;\r\n\r\n        userProfile[msg.sender].requestIndices++;\r\n\r\n    }\r\n\r\n\r\n    // User_1: Accept the buy request; sell.\r\n    function AcceptRequest(uint _index, uint _reqNo) external{\r\n\r\n        uint _surveyNo = ownerMapsProperty[msg.sender][_index].surveyNumber;\r\n        string memory _state = ownerMapsProperty[msg.sender][_index].state; \r\n        string memory _district = ownerMapsProperty[msg.sender][_index].district;\r\n        string memory _city = ownerMapsProperty[msg.sender][_index].city;\r\n        \r\n        // updating LandDetails\r\n        address newOwner = landDetalsMap[_state][_district][_city][_surveyNo].requests[_reqNo].whoRequested;\r\n        uint newOwner_reqIndex = landDetalsMap[_state][_district][_city][_surveyNo].requests[_reqNo].reqIndex;\r\n        uint noOfReq = landDetalsMap[_state][_district][_city][_surveyNo].noOfRequests;\r\n\r\n        // now removing all incoming requests\r\n        for(uint i=0; i<noOfReq; i++){\r\n            delete landDetalsMap[_state][_district][_city][_surveyNo].requests[i];\r\n        }\r\n\r\n        landDetalsMap[_state][_district][_city][_surveyNo].owner = newOwner;\r\n        landDetalsMap[_state][_district][_city][_surveyNo].markAvailable = false;\r\n        landDetalsMap[_state][_district][_city][_surveyNo].noOfRequests = 0;\r\n\r\n        // deleting property from user_1's ownerMapsProperty \r\n        delete ownerMapsProperty[msg.sender][_index];\r\n\r\n        // adding ownerMapsProperty for user_2\r\n        uint newOwnerTotProp = userProfile[newOwner].totalIndices;\r\n        OwnerOwns storage newOwnerOwns = ownerMapsProperty[newOwner][newOwnerTotProp];\r\n       \r\n        newOwnerOwns.surveyNumber = _surveyNo;\r\n        newOwnerOwns.state = _state;\r\n        newOwnerOwns.district = _district;\r\n        newOwnerOwns.city = _city;\r\n\r\n        landDetalsMap[_state][_district][_city][_surveyNo].index = newOwnerTotProp;\r\n\r\n        userProfile[newOwner].totalIndices++;\r\n\r\n        // deleting requested land from user_2\r\n        delete requestedLands[newOwner][newOwner_reqIndex];\r\n\r\n    }\r\n\r\n\r\n    \r\n    //******* GETTERS **********\r\n\r\n    // return land details \r\n    function getLandDetails(string memory _state, string memory _district, string memory _city, uint _surveyNo) external view returns(address, uint256, uint, uint, uint){\r\n        \r\n        address owner = landDetalsMap[_state][_district][_city][_surveyNo].owner;\r\n        uint256 propertyid = landDetalsMap[_state][_district][_city][_surveyNo].propertyId;\r\n        uint indx = landDetalsMap[_state][_district][_city][_surveyNo].index;\r\n        uint mv = landDetalsMap[_state][_district][_city][_surveyNo].marketValue;\r\n        uint sqft = landDetalsMap[_state][_district][_city][_surveyNo].sqft;\r\n\r\n        return(owner, propertyid, indx, mv, sqft);\r\n    }\r\n\r\n    function isAvailable(string memory _state, string memory _district, string memory _city, uint _surveyNo) external view returns(bool){\r\n        bool available = landDetalsMap[_state][_district][_city][_surveyNo].markAvailable;\r\n        return(available);\r\n    }\r\n\r\n    function getOwnerOwns(uint indx) external view returns(string memory, string memory, string memory, uint){\r\n        \r\n        uint surveyNo = ownerMapsProperty[msg.sender][indx].surveyNumber;\r\n        string memory state = ownerMapsProperty[msg.sender][indx].state;\r\n        string memory district = ownerMapsProperty[msg.sender][indx].district;\r\n        string memory city = ownerMapsProperty[msg.sender][indx].city;\r\n\r\n        return(state, district, city, surveyNo);\r\n    }\r\n\r\n    function getRequestedLands(uint indx) external view returns(string memory, string memory, string memory, uint){\r\n        \r\n        uint surveyNo = requestedLands[msg.sender][indx].surveyNumber;\r\n        string memory state = requestedLands[msg.sender][indx].state;\r\n        string memory district = requestedLands[msg.sender][indx].district;\r\n        string memory city = requestedLands[msg.sender][indx].city;\r\n\r\n        return(state, district, city, surveyNo);\r\n    }\r\n\r\n    function getUserProfile() external view returns(string memory, string memory, string memory, uint256, string memory){\r\n        \r\n        string memory fullName = userProfile[msg.sender].fullName;\r\n        string memory gender = userProfile[msg.sender].gender;\r\n        string memory email = userProfile[msg.sender].email;\r\n        uint256 contact = userProfile[msg.sender].contact;\r\n        string memory residentialAddr = userProfile[msg.sender].residentialAddr;\r\n\r\n        return(fullName, gender, email, contact, residentialAddr);\r\n    }\r\n\r\n    function getIndices() external view returns(uint, uint){\r\n\r\n        uint _totalIndices = userProfile[msg.sender].totalIndices;\r\n        uint _reqIndices = userProfile[msg.sender].requestIndices;\r\n\r\n        return(_totalIndices, _reqIndices);\r\n    }\r\n\r\n\r\n    function didIRequested(string memory _state, string memory _district, string memory _city, uint _surveyNo) external view returns(bool){\r\n        \r\n        LandDetails storage thisLandDetail = landDetalsMap[_state][_district][_city][_surveyNo];\r\n        uint _noOfRequests = thisLandDetail.noOfRequests;\r\n\r\n        if(_noOfRequests == 0) \r\n            return (false);\r\n\r\n        for(uint i=0; i<_noOfRequests; i++){\r\n            if(thisLandDetail.requests[i].whoRequested == msg.sender){\r\n                return (true);\r\n            }\r\n        } \r\n\r\n        return(false);\r\n    } \r\n\r\n}",
  "sourcePath": "D:\\tasks\\Ethereum\\LandRegistry\\contracts\\Registry.sol",
  "compiler": {
    "name": "solc",
    "version": "0.8.9+commit.e5eed63a.Emscripten.clang"
  },
  "schemaVersion": "3.4.4",
  "updatedAt": "2022-04-16T08:34:39.043Z",
  "networkType": "ethereum",
  "devdoc": {
    "kind": "dev",
    "methods": {},
    "version": 1
  },
  "userdoc": {
    "kind": "user",
    "methods": {},
    "version": 1
  }
}